:020000040800F2
:10000000C0680020950200087F4300087330000894
:1000100015430008BF1D000839A4000800000000B7
:10002000000000000000000000000000B98A000885
:10003000652E000800000000DB160008CD8B0008CC
:10004000AF020008AF020008AF020008AF020008CC
:10005000AF020008AF020008AF020008AF020008BC
:10006000AF020008AF020008AF020008AF020008AC
:10007000AF020008AF020008AF020008AF0200089C
:10008000AF020008AF020008AF0200080000000045
:10009000000000000000000000000000AF020008A7
:1000A000AF020008AF020008AF020008AF0200086C
:1000B000718E0008D18F0008E18F0008AF020008A0
:1000C000AF020008AF020008AF020008AF0200084C
:1000D000AF020008AF02000885A100080000000080
:1000E000AF020008AF020008AF02000800000000E5
:1000F000000000000000000000000000AF02000847
:1001000000000000AF020008AF020008AF020008C4
:1001100000000000000000000000000000000000DF
:10012000AF020008AF020008AF020008AF020008EB
:10013000AF02000800000000000000000000000006
:10014000000000000000000000000000AF020008F6
:10015000AF020008AF020008AF020008AF020008BB
:10016000AF020008AF02000800000000000000001D
:10017000000000000000000000000000000000007F
:1001800000000000AF0200080000000000000000B6
:10019000AF020008AF02000800F002F800F06AF8B1
:1001A0000AA090E8000C82448344AAF10107DA45D2
:1001B00001D100F05FF8AFF2090EBAE80F0013F0BA
:1001C000010F18BFFB1A43F00103184700C60000D7
:1001D00020C600000A444FF0000C10F8013B13F059
:1001E000070408BF10F8014B1D1108BF10F8015B90
:1001F000641E05D010F8016B641E01F8016BF9D183
:1002000013F0080F1EBF10F8014BAD1C0C1B09D1D9
:100210006D1E58BF01F801CBFAD505E014F8016B4B
:1002200001F8016B6D1EF9D59142D6D370470000DD
:100230000023002400250026103A28BF78C1FBD8EF
:10024000520728BF30C148BF0B6070471FB50CF084
:10025000AAF800F0D1FB0400002000210BF05CFAAA
:10026000401C6060002000210BF040FAE0601FBDE0
:1002700010B510BD00F0FAF81146FFF7E7FF0BF0DC
:100280005FF800F073FB03B4FFF7F2FF03BC0AF062
:10029000CCFE00000948804709480047FEE7FEE71A
:1002A000FEE7FEE7FEE7FEE7FEE7FEE7FEE7FEE726
:1002B00004480549054A064B70470000ED8B0008CD
:1002C00099010008C0620020C0680020C0640020BE
:1002D000C064002072B6704762B67047EFF31080BA
:1002E00072B6704780F31088704730BF704720BFE8
:1002F0007047B0FA80F0704790FAA0F0B0FA80F042
:10030000704790FAA0F07047704710B5431C02E0A8
:1003100010F8011B71B18107FAD14FF0013202C808
:100320008C1A8C4314EAC211F9D0C01A0A0603D001
:10033000C01E10BDC01A10BD0A0401D0801E10BD21
:100340000902FCD0401E10BD7047704770477047CF
:1003500010B500F059F8006810BD10B5044600F063
:1003600053F8046010BD00000FB4002300B589B03D
:100370000CA900910B99CB60204B7B440693204B3A
:100380007B44079304236FF00042CDE901321D4AFC
:100390007A446B460892024600200CF06EF809B0D1
:1003A0005DF814FB70B506464FF0FF3015460C465D
:1003B000324686B00091CDE90101694600200490E3
:1003C00004A8FFF7D1FF03460498211825B108B10E
:1003D0000A4600E022462A6000280DD0002B02DDEC
:1003E0000098884208D03246081B69460094CDE93F
:1003F000010404A8FFF7B8FF06B070BDA500000017
:10040000BD0000007D000000004870475C620020D5
:1004100010B5044600F050F80068005D00F00100DF
:1004200010BD426842B1016811F8013B23B1521E70
:10043000C0E90012184670470121C160881E70474C
:1004400042685AB1C368016843B983688B4205D0DA
:10045000491E521CC0E90012002070474FF0FF30C7
:1004600070470000004870475C6200207546FFF747
:10047000F9FFAE4605006946534620F00700854661
:1004800018B020B5FFF714FFBDE820404FF000067C
:100490004FF000074FF000084FF0000B21F007016C
:1004A000AC46ACE8C009ACE8C009ACE8C009ACE8AF
:1004B000C0098D467047000010B500F09DFA001D80
:1004C00010BD00BF55B200002DE9FF4F064689B0B0
:1004D0000878FF2806D0491C2D2805D000244FF0AD
:1004E000000908E000200CE00124F8E709EB89038B
:1004F000491C00EB43090878FF28F7D114B1C9F172
:1005000000008146107800252C46AA4629462D2851
:1005100001D02B2804D1521C2D2813D00020824654
:100520008B461078FF280FD04FF0000C0A21521C88
:10053000A5FB017804FB018105FB0C11C5194BEBF0
:100540000104EEE70120EAE7002108464FF0000031
:10055000BAF1000F02D000EB80004008C0F38158D0
:10056000B8F1010F01DD4FF0FF380C9809EB0007DF
:1005700055EA040009D04FF0020917F5FA7F0BDAAB
:100580004FEACA70C6E900B012E04FEACA70C6E985
:1005900000B00DB0BDE8F08FB7F5FA7F0DDDF04883
:1005A0007844D0E90010C6E9001040EACA707060D3
:1005B000FFF72AFFC0F80090EBE7391E02DAC8F116
:1005C000000200E0424600DA794206A800F018FA7C
:1005D00006AB93E8070003AB83E8070044F23E0054
:1005E0005BEA04010090584604D144F21E012C46F7
:1005F0005D460091210C0904014306D100992404B1
:1006000044EA15442D041039009104F07F41014360
:1006100006D10099240244EA15642D02083900919C
:1006200004F07041014306D10099240144EA157495
:100630002D01091F009104F04041014306D10099AA
:10064000A40044EA9574AD00891E009104F00041B5
:10065000084304D100986D196441401E0090424641
:100660006846002FCDE9014503A902DD00F0E3FE55
:1006700001E000F0B8FEBAF1000F04460D4601D0CB
:1006800084F0004440F2FF7724F00040284303D078
:10069000C4F30A50B84212D1FFF7B6FEC0F800907A
:1006A000C4F30A50B8420AD1AE487844D0E90010E9
:1006B000C6E9001004F000410843706069E7C6E92C
:1006C000005466E72DE9FF4F1F464FF0000A4FF038
:1006D000FF38454691B0D7E90146CDF83CA000F07F
:1006E0008BF9C0680168405C1090B96912986D1C64
:1006F0008847396A814688470028F6D1B9F1FF3F1B
:100700000AD0002E24F4D06411DDB9F12B0F08D0EB
:10071000B9F12D0F0BD102E0404615B03AE744F491
:100720008064B96912986D1C8847761E8146600501
:1007300004A901D52D2000E02B20002E01F1010B92
:100740000DF130088DF810003FDDB9F1690F08D0C8
:10075000B9F1490F05D0B9F16E0F02D0B9F14E0FC2
:100760001CD13B4601A8009580E85002DDE9121239
:100770006FF002000BF085FEC11CCED10EE0B9690E
:1007800012986D1C884781461398761E44F40074B5
:1007900005600F98401C002E0F9016DDB9F1300F48
:1007A000EDD0B9F1780F02D0B9F1580F0DD10F98F3
:1007B00001280AD13B46CDE90054DDE91212001FA1
:1007C00002960BF05CFEC11CA7D1109989453ED161
:1007D00044F0800406E01399681CAAF1010A44F46D
:1007E00000740860B9696D1C1298761E884730281D
:1007F0008146F0D02BE01099894505D1200603D41D
:10080000761E44F0800418E048460AF007FC08B35E
:10081000761E0DF123018B4544F4007408D2A9F132
:1008200030000BF8010B200607D5AAF1010003E008
:10083000200602D40AF101008246A00502D51399D0
:10084000681C0860B96912986D1C88478146002EA3
:10085000D1DC53E0002E51DDB9F1650F02D0B9F1C2
:10086000450F4BD1A00549D5B9696D1C1298761E6C
:1008700024F440748847002E81460CDD2B2804D0D8
:10088000B9F12D0F07D144F48074B96912986D1C29
:100890008847761E8146E00501D52D2100E02B21F9
:1008A00008F8011BCDF8008021E0761E0DF139011A
:1008B000884544F400740CD2A9F1300010F0FF0018
:1008C00088F8000002D10099884509D908F101088B
:1008D00006E0E00501D5244801E042F20F708246AF
:1008E000B96912986D1C8847814613980560002EDF
:1008F00004DD48460AF092FB0028D6D1F969129827
:100900008847FF2053468BF8000088F8000000203D
:100910000A900B9004AA0CA90AA8FFF7D5FDA00520
:1009200002D46FF00100F8E614F0240F0AD0E007BB
:1009300014D13868DDE90A12031D3B600068C0E984
:1009400000120BE00AA968460AF002FBE00705D195
:100950003868009A011D3960006802602846DCE6AC
:1009600048C200003EC10000F1D8FFFF0446AFF3CB
:1009700000802046FFF787FC4FF0013C50F8042B25
:1009800051F8043B9A4221D1A2EB0C03934313EAA2
:10099000CC1317D150F8042B51F8043B9A4215D1CF
:1009A000A2EB0C03934313EACC130BD150F8042BA6
:1009B00051F8043B9A4209D1A2EB0C03934313EA8A
:1009C000CC13DBD04FF00000704700BFD01A01BA43
:1009D000B1FA81F101F0180122FA01F0CB40C1F126
:1009E0002001DBB2C0B2C01A2CFA01F3D11A914334
:1009F00011EAC311E6D17047004870477C620020BD
:100A00002DE9F047814616468AB0334878440DC830
:100A10008DE80D0030487844801C03AC0DC884E894
:100A20000D0041F69B300844372190FBF1F290FB1A
:100A3000F1F5A5F1800501FB12041B3C02D56442CF
:100A4000012000E00020DFF890A080460027FA4453
:100A5000AAF1BE0A0DE0E00709D03246684607EB6E
:100A600047010AEB810100F0D2FC8DE80700641019
:100A70007F1C002CEFD1184F7F44AC3F18E0E807F3
:100A800014D007EB04100DF1180A90E80E008AE864
:100A90000E00C068F04201D198190890324606A9AC
:100AA00003A800F0B4FC03AB83E807006D10641CDE
:100AB000002DE4D132466946B8F1000F03A802D0F8
:100AC00000F07DFC01E000F0A2FCC9E90001C9F8DA
:100AD00008200AB0BDE8F087A4BD00002DE9FF4F53
:100AE0001F464FF03C0987B04FF00042DDE914107B
:100AF00001F10108DDF858A002EA405003900020FF
:100B000004908346054604460590B969461E089838
:100B10008847AAF1010A0290BAF1000F37DD029866
:100B20002E2815D0102100F012FA00282ADB4FF0F1
:100B3000010B0499014316D0B9F1000F0BDB4A46B3
:100B4000C11700F0F1F905430C43A9F1040905E0D0
:100B50000120059007E008B145F00105012004904F
:100B6000059800B9361DB969089808F10108884749
:100B7000BBF1000FAAF1010A0290CDD00999C1F88A
:100B80000080C9E70298702808D0502806D0F9697B
:100B900008988847BBF1000F14D04FE00020029066
:100BA0000120BBF1000F049009D0B969089808F141
:100BB00001088847AAF10109B9F1000F07DCF969BA
:100BC000089888476FF001000BB0BDE8F08F2B2824
:100BD00004D02D280CD14FF0FF300490B96908984B
:100BE00008F101088847A9F10109B9F1000FE6DD14
:100BF000411CE4D00A2100F0AAF90028DFDB0299A9
:100C000008F1010801EB810100EB41000290B96994
:100C1000089888470A2100F09AF9099AA9F1010970
:100C2000B9F1000FC2F8008001DD0028E7DAF969A8
:100C3000089888470499029800FB016655EA040069
:100C400004D004F04041090002D006E0039898E087
:100C5000A40044EA9574AD00B61E04F000410800FB
:100C600002D16D196441761E159810F0240F03D03F
:100C70004FF00B095C4803E04FF028096FF07D004E
:100C80008246564507DAAAEB06018944B9F1410FBD
:100C900001DD4FF0410901200021A9F1010200F01E
:100CA00043F9024628400B462140084301D0012168
:100CB00000E00021501E029143F1FF312840214005
:100CC000084301D0012000E000200299834651EA48
:100CD0000B014FD0002108464FF00000039900F4AB
:100CE000400039B100EB80004FF4400100EBD070C0
:100CF00001EA60008015012802DD4FF0FF3000E0BE
:100D000013D0401C36D0029860B3BBF1000F0CD159
:100D10004A460120002100F007F9284021400843FD
:100D200001D0012000E00020E0B101204A4600216E
:100D300000F0FAF8034640190A4661412D1A8C4129
:100D400011D3B9F1400F09DD159810F0240F02D02E
:100D5000AAF1340603E0AAF1170600E0761C00258C
:100D60004FF0004406E05B1E42F1FF3220EA03052B
:100D700021EA0204CAF10100B04206DA1B490398D5
:100D800008430190002000900EE0039AC4F3D321A1
:100D9000E80A0A43164940EA44500A433146CDE97D
:100DA000000268460AF030F9159810F0240F0BD0B5
:100DB0001598C00715D13868DDE90012031D3B60A6
:100DC0000068C0E900120CE002A869460AF0C0F809
:100DD0001598C00705D13868029A011D396000686E
:100DE00002604046F0E6000002FCFFFF0000F07FDA
:100DF0000000F03F2DE9FF4F92461D4685B04FF0B1
:100E00000041DDE9124BDDE914727F1E01EA4B500F
:100E1000414940F0FF4940EA0108002122F020004A
:100E20004928049102D04E2828D04CE03BA001264E
:100E300007C88DE80700A9690698641C88477F1ECB
:100E4000014606D41DF8060018B121F020018142A8
:100E50000BD0E96906988847032E34D0082E32D08B
:100E60006FF0010009B0BDE8F08F761C032E01D0B1
:100E7000082EE0D1601CCAF80000DCE7A9690698DA
:100E8000641C88477F1E2AD420F02000412826D1E8
:100E9000A9690698641C88477F1E20D420F0200092
:100EA0004E281CD1A9690698641C88477F1E48F407
:100EB000002849F48009CAF8004001D4282806D047
:100EC000E969069888475FEACB7012D022E0A969E9
:100ED0000698641C88477F1E01D4002803DAE9695C
:100EE00006988847BCE72928F1D1641CCAF800405D
:100EF000E9E71BF0240F07D028680499031D2B6035
:100F00000068C0E9001805E02868021D2A60006832
:100F1000C0F800902046A5E70000F07F494E464902
:100F20004E49545900000000B2F120030AD5C2F125
:100F3000200301FA02F120FA03F300FA02F041EA79
:100F40000301704700FA03F14FF0000070473A28A0
:100F500000D2303820F02002412A01D3A2F137001C
:100F6000884201D34FF0FF30704720F07F4C80EA79
:100F7000030023F07F47ACEB070303F57C5300F03D
:100F8000004003F1FF032DE980494FEA154B09B4F6
:100F90004FEA144325EA0B4E24EA03480FF20426D5
:100FA00006EB132749083E785FEA320203FB066727
:100FB000C7F5000707FB06F64FEA54374FEAD64657
:100FC00006F1020607FB066CCCF1005C4FEA1C47F9
:100FD0002CEA074C07FB06F40CFB06F504EB154660
:100FE0004FEA961634BF00204FF000404FEAD13749
:100FF00006FB07FC4FEA1C4C0CFB0BF7D21B03FB58
:101000000CF761EB07010CFB0EF7B0EB074072EB3E
:1010100017420CFB08F734BFA2EB0742B2EB0742C2
:1010200061EB17414FEA0C444FEA910706FB07FCBE
:101030004FEA1C4C0CFB0BF7B0EBC74072EB57327E
:1010400003FB0CF734BFA2EBC742B2EBC74261EB24
:1010500057310CFB0EF7B0EBC70072EB57720CFB6D
:1010600008F734BFA2EBC702B2EBC70261EB5771BE
:10107000039F4FEA816141EA921104EBCC044FEAED
:10108000D1374FEA826206FB07FC42EA90124FEA30
:1010900080604FEA1C4C0CFB0BF7D21B03FB0CF7D8
:1010A00061EB07010CFB0EF7B0EB074072EB174248
:1010B0000CFB08F734BFA2EB0742B2EB074261EB2F
:1010C00017414FEA8C554FEA910704EB9C2406FB2D
:1010D00007FC4FEA1C4C0CFB0BF7B0EBC74072EB64
:1010E000573203FB0CF734BFA2EBC742B2EBC74247
:1010F00061EB57310CFB0EF7B0EBC70072EB577288
:101100000CFB08F734BFA2EBC702B2EBC70261EBDE
:10111000577115EB4C254FEA816141EA92114FEA74
:1011200082624FEAD13742EA901206FB07FC44F193
:1011300000044FEA80604FEA1C4C0CFB0BF7D21BFB
:1011400003FB0CF761EB07010CFB0EF7B0EB07405C
:1011500072EB17420CFB08F734BFA2EB0742B2EB6D
:10116000074261EB174115EB1C154FEA813141EA4B
:1011700092414FEA823242EA90424FEA80304FEA8F
:101180000C7644F1000448EA03434EEA0B484FF062
:10119000000EB2EB080C71EB030724BF6246394620
:1011A0004EEB0E0E4FF0000B0018524149414BEB35
:1011B0000B0BB2EB080C71EB03077BF1000B24BFA8
:1011C000624639464EEB0E0E4FF0000B00185241AE
:1011D00049414BEB0B0BB2EB080C71EB03077BF1B6
:1011E000000B24BF624639464EEB0E0E51EA020751
:1011F00018BF46F0010616EB0E7655F1000254F1C9
:10120000000103D5BDE88901BDE80088BDE889017A
:10121000BDE80048B619524141EB0101A3F10103B9
:10122000704780807F7E7D7C7B7A79787776767553
:101230007473727171706F6E6E6D6C6C6B6A6A69CB
:101240006868676666656464636362616160605F65
:101250005F5E5E5D5D5C5C5B5B5A5A5959585857DE
:101260005756565555555454535352525251515046
:1012700050504F4F4F4E4E4D4D4D4C4C4C4B4B4B99
:101280004A4A4A49494948484847474747464646DF
:10129000454545444444444343434342424242411A
:1012A0004141000046EA0646A3F570534FEA164650
:1012B00046EA42564FEAD22242EA415210B54FEA7C
:1012C000D121A3F1010300F017F820F0004000F154
:1012D000010C00F0004701EB00501146BCF5006F17
:1012E00040EA070000D210BD02484FF0000140EA7A
:1012F000070010BD0000F07F002B26D4770021D01E
:101300001CB54FEA370703B44FF010004FF010013F
:101310004FF000000FBCBDE810400BF1010BBBF11A
:10132000010F08BF5FEA170722BF12F1010211F196
:1013300001014FF0004143F1000300F0004043EA97
:1013400000007047F9D35708DAE746EA064613F17A
:10135000400F4FEA16461FDD13F1200FDFBF164383
:101360000A46002120335B42C8D0C3F1200746EA79
:10137000064602FA07F74FEA164646EA0706C3F1A1
:10138000200722FA03F201FA07F721FA03F14FF0DE
:10139000000342EA0702B1E746EA020646EA0646C9
:1013A0004FEA164646EA0106BCBF46EA0646360C38
:1013B0004FF000034FF000024FF000019EE72DE9CF
:1013C000C048934630B491E8380007C831EA400C71
:1013D00048BF34EA430C03D5FFF7C7FDFFF78CFF86
:1013E000F0BCBDE800882DE9C048934630B491E8D0
:1013F000380007C831EA400C48BF34EA430C03D533
:10140000FFF7B3FDFFF74EFFF0BCBDE800882DE904
:10141000C048934630B491E8380007C810F0804FB8
:1014200008BF13F0804F03D100F019F8FFF764FFF5
:10143000F0BCBDE800882DE9C048934630B491E87F
:10144000380007C810F0804F08BF13F0804F03D159
:1014500000F005F8FFF726FFF0BCBDE8008820F09B
:101460007F4780EA030023F07F4C07EB0C03A3F5D2
:101470007C5300F00040A3F1FE0392F0000F00F057
:10148000B38095F0000F00F077802DE901494FEA15
:1014900011404FEA144621EA004800FB06FC24EA0A
:1014A000064708FB06F607FB08F800FB07F718EBF2
:1014B00006484CEB164C4FEA124B18EB07484FEA24
:1014C00015464CEB174022EA0B4E0BFB06FC25EAB7
:1014D00006470EFB06F607FB0EFE0BFB07F71EEB9F
:1014E000064E4CEB164C4FF000061EEB074E4CEB35
:1014F000174B18EB0B0840F1000018EB0E0B58EBE4
:10150000000840F100008F1A4FF000013CBFC943B2
:10151000661B14BFB5EB040C00213CBFC943F61B8E
:101520004FEA17444EEA8E0E27EA04454FEA1C475D
:1015300004FB07622CEA074C05FB07F70CFB05F6DA
:1015400004FB0CFC16EB074642EB174216EB0C466D
:1015500042EB1C421BEB060658EB0202414146EAF5
:101560009E0601D5BDE80189B619524141EB010142
:10157000A3F10103BDE801894FEA14454FEA114781
:1015800024EA054621EA074C05FB07F406FB07F7AA
:101590000CFB06F105FB0CFC11EB074144EB174477
:1015A0004FEA124711EB0C4144EB1C4422EA074C72
:1015B00005FB07F206FB07F70CFB06F605FB0CFC28
:1015C00016EB074642EB174216EB0C4642EB1C4566
:1015D0006A1854F1000148BF7047B619524141EBF7
:1015E0000101A3F10103704795F0000F37D04FEAD6
:1015F00011424FEA144721EA024624EA074C02FB53
:1016000007F106FB07F70CFB06F402FB0CFC14EBDE
:10161000074441EB17414FEA154714EB0C4441EBEB
:101620001C4125EA074C02FB07F506FB07F70CFBFC
:1016300006F602FB0CFC16EB074645EB174516EBCE
:101640000C4645EB1C42121951F1000148BF70478E
:10165000B619524141EB0101A3F1010370474FEA72
:1016600014454FEA114724EA054621EA074C05FBD9
:1016700007F106FB07F70CFB06F24FF0000605FB2F
:101680000CFC12EB074241EB174112EB0C4251EB01
:101690001C4148BF7047921841EB0101A3F10103BF
:1016A0007047000022484FF6FF710170002080F360
:1016B00009882048016881F308881F484FF080514D
:1016C000016062B6FEE71C484FF080510160704730
:1016D00019484FF080510160704772B6EFF30980EE
:1016E00050B11EF0100F08BF20ED108A203880E89E
:1016F000F00F12490968086000B5114880475DF88D
:1017000004EB104810490A7802700C480F490A6827
:101710000260106890E8F00F20301EF0100F08BF34
:10172000B0EC108A80F309884EF0040E62B6704760
:1017300022ED00E0A005002004ED00E09805002067
:10174000715E00085E0500205F0500209C050020FA
:1017500070B5024600200AE0145C064B1D681B6849
:101760005B1C044E3360044B5C55431CD8B288426A
:10177000F2DB70BDF8040020224C00207FB500246D
:101780000026AA222146641C464842542146641C75
:10179000425406222146641C425400222146641C05
:1017A00042549DF801202146641C42549DF80020BB
:1017B0002146641C42549DF805202146641C425475
:1017C0009DF804202046611CCCB236490A549DF88D
:1017D00009202046611CCCB232490A549DF80820E9
:1017E0002046611CCCB22F490A549DF80D2020469A
:1017F000611CCCB22B490A549DF80C202046611C78
:10180000CCB228490A549DF821202046611CCCB254
:1018100024490A549DF820202046611CCCB221495D
:101820000A549DF825202046611CCCB21D490A545B
:101830009DF824202046611CCCB21A490A549DF818
:1018400029202046611CCCB216490A549DF8282054
:101850002046611CCCB213490A549DF82D20204625
:10186000611CCCB20F490A549DF82C202046611C03
:10187000CCB20C490A54201FC870002505E0094865
:10188000405D3044C6B2681CC5B2A542F7DB2046B5
:10189000611CCCB203490E5421460248FFF758FFA1
:1018A0007FBD0000F04B00207FB500240026AA2257
:1018B0002146641C544842542146641C425403226D
:1018C0002146641C425400222146641C42549DF867
:1018D00001202146641C42549DF800202146641CCE
:1018E00042549DF805202146641C42549DF8042072
:1018F0002046611CCCB244490A549DF80920214677
:10190000601CC4B2404842549DF808202046611C27
:10191000CCB23D490A549DF80D202046611CCCB242
:1019200039490A549DF80C202046611CCCB2364936
:101930000A549DF821202046611CCCB232490A5439
:101940009DF820202046611CCCB22F490A549DF8F6
:1019500025202146601CC4B22B4842549DF8242007
:101960002046611CCCB228490A549DF82920204603
:10197000611CCCB224490A549DF828202146601CE1
:10198000C4B2214842549DF82D202046611CCCB29F
:101990001D490A549DF82C202046611CCCB21A49DE
:1019A0000A549DF831202046611CCCB216490A54D5
:1019B0009DF830202046611CCCB213490A549DF892
:1019C00035202046611CCCB20F490A549DF83420C2
:1019D0002046611CCCB20C490A54201FC870002557
:1019E00005E00948405D3044C6B2681CC5B2A54256
:1019F000F7DB2046611CCCB203490E542146024855
:101A0000FFF7A6FE7FBD0000F04B00202DE9F84F48
:101A100006460F4690469946DDF828B00024A246B7
:101A2000AA222146641C5F4842542146641C425449
:101A300002222146641C425400222146641C425466
:101A400000969DF801202146641C42549DF8002018
:101A50002146641C425400979DF801202146641CD5
:101A600042549DF800202046611CCCB24D490A54D6
:101A7000CDF800809DF801202046611CCCB2494978
:101A80000A549DF800202046611CCCB245490A54F6
:101A9000CDF800909DF801202046611CCCB2414950
:101AA0000A549DF800202046611CCCB23D490A54DE
:101AB000CDF800B09DF801202046611CCCB2394918
:101AC0000A549DF800202046611CCCB235490A54C6
:101AD0000B9800909DF801202046611CCCB2314942
:101AE0000A549DF800202046611CCCB22D490A54AE
:101AF0000C9800909DF801202046611CCCB2294929
:101B00000A549DF800202046611CCCB225490A5495
:101B10000D9800909DF801202046611CCCB221490F
:101B20000A549DF800202046611CCCB21D490A547D
:101B30000E9800909DF801202046611CCCB21949F6
:101B40000A549DF800202046611CCCB215490A5465
:101B5000002000909DF801202046611CCCB2114964
:101B60000A549DF800202046611CCCB20D490A544D
:101B7000201FC870002506E00A48405D504400F070
:101B8000FF0A681CC5B2A542F6DB2046611CCCB238
:101B9000044901F800A021460248FFF7D9FDBDE83D
:101BA000F88F0000F04B002078B500240026AA2210
:101BB0002146641C2D4842542146641C42540B2289
:101BC0002146641C425400222146641C4254FDEE0E
:101BD000C01A11EE900A00B200909DF80120214633
:101BE000641C224842549DF800202146641C425443
:101BF000FDEEE01A11EE900A00B200909DF801206F
:101C00002146641C194842549DF800202046611C5E
:101C1000CCB216490A54FDEEC11A11EE900A00B278
:101C200000909DF801202146601CC4B20F48425428
:101C30009DF800202046611CCCB20C490A54201F9C
:101C4000C870002505E00948405D3044C6B2681CF4
:101C5000C5B2A542F7DB2046611CCCB203490E5445
:101C600021460248FFF774FD78BD0000F04B0020CC
:101C70002DE9FC4306460F4690460024A1460096F7
:101C8000AA222146641C484842542146641C4254FE
:101C900001222146641C425400222146641C425405
:101CA000DFED421A60EE211AFDEEE11A11EE900A04
:101CB00000B201909DF805202146641C3A48425428
:101CC0009DF804202146641C4254DFED381A60EE72
:101CD000A11AFDEEE11A11EE900A00B201909DF8F2
:101CE00005202146641C304842549DF804202046BB
:101CF000611CCCB22C490A54DFED2C1A61EE211A7A
:101D0000FDEEE11A11EE900A00B201909DF8052057
:101D10002146601CC4B2244842549DF80420204649
:101D2000611CCCB220490A549DF803202046611C56
:101D3000CCB21D490A549DF802202046611CCCB249
:101D400019490A549DF801202046611CCCB216495D
:101D50000A549DF800202046611CCCB212490A5456
:101D60002046611CCCB210490F542046611CCCB2F5
:101D70000D4901F80080201FC870002506E00A48C0
:101D8000405D484400F0FF09681CC5B2A542F6DB7F
:101D90002046611CCCB2044901F80090214602485B
:101DA000FFF7D6FCBDE8FC83F04B00200000C842E2
:101DB0001FB5684606F0B8FB019804B010BD00BF1F
:101DC000FEE710B500F020F800F01AF810BD000092
:101DD00010B5002400BF00BFFEF780FA044600BF24
:101DE00000BF1021054802F097FA00BF00BF20464F
:101DF000FEF778FA00BF00BF10BD0000EA4C0020DB
:101E000010B5FFF7E5FF10BD10B5002002490860CE
:101E100000F00AF810BD000020050020014908600C
:101E2000704700002005002010B5FFF7C1FF0446F1
:101E30000848006840F080700649086000200649A4
:101E400048600846006840F0010008602046FFF73F
:101E5000E5FF10BDFCED00E0001000E0014948681E
:101E600070470000001000E010B5FE4A92ED192AFC
:101E7000B1EE422ADFEDFC2AB4EEE22AF1EE10FACE
:101E800002D29FEDF92A13E0F64A92ED192AB1EE3B
:101E9000422ADFEDF62AB4EEE22AF1EE10FA02DD74
:101EA0009FEDF22A04E0EF4A92ED192AB1EE422AA0
:101EB000EC4A82ED062AEE4A92ED192ADFEDEA2A73
:101EC000B4EEE22AF1EE10FA02D29FEDE72A0FE01B
:101ED000E74A92ED192ADFEDE52AB4EEE22AF1EEA7
:101EE00010FA02DD9FEDE12A02E0E14A92ED192AA3
:101EF000DF4A82ED062ADF4A92ED192AB1EE422A24
:101F0000DFEDDD2AB4EEE22AF1EE10FA02D29FED07
:101F1000DA2A13E0D74A92ED192AB1EE422ADFED10
:101F2000D72AB4EEE22AF1EE10FA02DD9FEDD32AB1
:101F300004E0D04A92ED192AB1EE422ACD4A82ED50
:101F4000062ACB4A92ED062A32EE602A82ED072A53
:101F5000C44A92ED062A32EE412A82ED072AC54A8A
:101F600092ED062A32EE612A82ED072ABD4A92EDF1
:101F7000092AD2ED072A02EE802A82ED092ABC4AFC
:101F800092ED092AD2ED072A02EE802A82ED092A73
:101F9000B84A92ED092AD2ED072A02EE802A82ED94
:101FA000092AB04A92ED092AF3EE042AB4EEE22A95
:101FB000F1EE10FA08D392ED092AFBEE042AB4EEF2
:101FC000E22AF1EE10FA09DDA64A92ED092AD2EDD5
:101FD000072A02EE802A82ED092A04E09FEDA82A52
:101FE000A04A82ED092AA24A92ED092AF3EE042AB8
:101FF000B4EEE22AF1EE10FA08D392ED092AFBEED4
:10200000042AB4EEE22AF1EE10FA09DD984A92EDC4
:10201000092AD2ED072A02EE802A82ED092A04E07D
:102020009FED972A924A82ED092A924A92ED092A57
:10203000F3EE042AB4EEE22AF1EE10FA08D392EDA0
:10204000092AFBEE042AB4EEE22AF1EE10FA09DDC9
:10205000884A92ED092AD2ED072A02EE802A82ED03
:10206000092A04E09FED862A824A82ED092A7D4AE8
:1020700092ED092ADFED832AB4EEE22AF1EE10FA9E
:1020800002D29FED802A0FE0764A92ED092ADFED19
:102090007E2AB4EEE22AF1EE10FA02DD9FED7A2AF2
:1020A00002E0704A92ED092A6E4A82ED092A704ACE
:1020B00092ED092ADFED732AB4EEE22AF1EE10FA6E
:1020C00002D29FED702A0FE0694A92ED092ADFEDF6
:1020D0006E2AB4EEE22AF1EE10FA02DD9FED6A2AD2
:1020E00002E0634A92ED092A614A82ED092A614AB7
:1020F00092ED092ADFED632AB4EEE22AF1EE10FA3E
:1021000002D29FED602A0FE05A4A92ED092ADFEDD4
:102110005E2AB4EEE22AF1EE10FA02DD9FED5A2AB1
:1021200002E0544A92ED092A524A82ED092A4D4AA8
:1021300092ED072AD2ED082A32EE622AC2EE002A78
:10214000C2ED0A2A4A4A92ED072AD2ED082A32EE57
:10215000622AC2EE002AC2ED0A2A464A92ED072AF6
:10216000D2ED082A32EE622AC2EE002AC2ED0A2A15
:102170003C4A92ED002AD2ED072A22EE222A82ED75
:10218000032A3B4A92ED002AD2ED072A22EE222AA8
:1021900082ED032A374A92ED002AD2ED072A22EE79
:1021A000222A82ED032A2F4A92ED012AD2ED092A32
:1021B00022EE222A82ED042A2D4A92ED012AD2ED46
:1021C000092A22EE222A82ED042A2A4A92ED012AC5
:1021D000D2ED092A22EE222A82ED042A214A92ED2A
:1021E000022AD2ED0A2A22EE222A82ED052A204A6C
:1021F00092ED022AD2ED0A2A22EE222A82ED052A47
:102200001C4A92ED022AD2ED0A2A22EE222A82EDFF
:10221000052A144A92ED032AD2ED042A32EE222A2C
:10222000D2ED052A32EE222AB1EE422A82ED0C2AA4
:102230000F4A92ED032AD2ED042A32EE222AD2ED81
:10224000052A32EE222AB1EE422A82ED0C2A094AF0
:1022500092ED032AD2ED042A32EE222AD2ED052A8B
:1022600014E00000B84A0020000096C30000964326
:10227000204B0020884B0020000016C300001643AE
:1022800000000000000048C20000484232EE222A4E
:1022900082ED0C2AFD4A92ED0C2ADFEDFD2AB4EE08
:1022A000E22AF1EE10FA02D29FEDF92A0FE0F74A86
:1022B00092ED0C2ADFEDF72AB4EEE22AF1EE10FAE5
:1022C00002DD9FEDF42A02E0F04A92ED0C2AEF4A7B
:1022D00082ED0C2AF04A92ED0C2ADFEDED2AB4EEE5
:1022E000E22AF1EE10FA02D29FEDE92A0FE0EA4A63
:1022F00092ED0C2ADFEDE72AB4EEE22AF1EE10FAB5
:1023000002DD9FEDE42A02E0E34A92ED0C2AE24A64
:1023100082ED0C2AE14A92ED0C2ADFEDDD2AB4EEC3
:10232000E22AF1EE10FA02D29FEDD92A0FE0DB4A41
:1023300092ED0C2ADFEDD72AB4EEE22AF1EE10FA84
:1023400002DD9FEDD42A02E0D44A92ED0C2AD34A52
:1023500082ED0C2ACD4A92ED072A82ED082ACE4A58
:1023600092ED072A82ED082ACC4A92ED072A82EDE7
:10237000082A4388A3F24C4202EBD273C3F34F0303
:10238000C74C2380C44A92ED0C2AC04AD2ED0C2AD5
:1023900032EE622AC14AD2ED0C2A32EE222ABDEE7A
:1023A000C22A12EE102A12B2BE4B1A80BA4A92ED1D
:1023B0000C2AB1EE422AB54AD2ED0C2A32EE622A3C
:1023C000B64AD2ED0C2A32EE622ABDEEC22A12EED5
:1023D000102A12B25A80B04A92ED0C2AB1EE422A6B
:1023E000AA4AD2ED0C2A32EE222AAC4AD2ED0C2AAD
:1023F00032EE222ABDEEC22A12EE102A12B29A80C2
:10240000A54A92ED0C2AA14AD2ED0C2A32EE222ADC
:10241000A24AD2ED0C2A32EE622ABDEEC22A12EE98
:10242000102A12B2DA801A46B2F9002023461B881D
:102430005B429A4203DA2246128852420CE0994AE1
:10244000B2F90020964B1B889A4202DD944A12880A
:1024500002E0944AB2F9002012B2924B1A801A4656
:10246000B2F902208E4B1B885B429A4203DA8C4AF7
:10247000128852420CE08B4AB2F90220884B1B882A
:102480009A4202DD864A128802E0864AB2F90220A8
:1024900012B2844B5A801A46B2F90420804B1B8832
:1024A0005B429A4203DA7E4A128852420CE07D4A2D
:1024B000B2F904207A4B1B889A4202DD784A1288CE
:1024C00002E0784AB2F9042012B2764B9A801A469A
:1024D000B2F90620724B1B885B429A4203DA704ABB
:1024E000128852420CE06F4AB2F906206C4B1B88EE
:1024F0009A4202DD6A4A128802E06A4AB2F906206C
:1025000012B2684BDA80428840F24C439A4220DD96
:102510004288644B1B881A44643A12B2624B1A8098
:102520004288604B5B881A44643A12B25E4B5A8010
:1025300042885C4B9B881A44643A12B25A4B9A8088
:102540004288584BDB881A44643A12B2564BDA8000
:1025500021E04FF47A72544B1A805A809A80DA80C4
:102560001FEDB92A494A82ED092A1FEDBB2A82EDE7
:10257000162A1FEDBD2A484A82ED092A1FEDC02AFE
:1025800082ED162A1FEDC22A444A82ED162A1FED5B
:10259000C42A82ED092A444AB2F90020B2F57A7FB2
:1025A00002DA4FF47A720BE03F4AB2F90020B2F53A
:1025B000FA6F02DD4FF4FA6202E03B4AB2F9002002
:1025C000394B1A801A46B2F90220B2F57A7F02DA44
:1025D0004FF47A720BE0344AB2F90220B2F5FA6F86
:1025E00002DD4FF4FA6202E02F4AB2F902202E4BCC
:1025F0005A801A46B2F90420B2F57A7F02DA4FF413
:102600007A720BE0284AB2F90420B2F5FA6F02DDC3
:102610004FF4FA6202E0244AB2F90420224B9A8075
:102620001A46B2F90620B2F57A7F02DA4FF47A72CE
:102630000BE01D4AB2F90620B2F5FA6F02DD4FF445
:10264000FA6202E0184AB2F90620174BDA801A46FD
:10265000B2F90020154B5A63134AB2F902209A636B
:10266000114AB2F90420DA630F4AB2F906201A645B
:102670000D4A12880A800C4A52884A800A4A928877
:102680008A80094AD288CA8010BD0000B84A00205A
:1026900000007AC300007A43204B0020884B0020C2
:1026A000D4040020CC040020C40400200000014019
:1026B00010B52DED108BB0EE408A0446B0EE60FAF6
:1026C000F0EE41FAF0EE618AA088A0F2DC5000EE54
:1026D000100AB8EEC00ADFEDFE0A80EE201ABBEE4B
:1026E000090A21EE000AFB4880ED130AE088A0F2F7
:1026F000DC5000EE100AF8EEC00A9FEDF51A80EEED
:10270000810AF3EE090A20EE200AF34880ED130A4D
:10271000608840F24C41884216DD2088A0F2DC50EF
:1027200000EE100AF8EEC00A9FEDE91A80EE810A69
:10273000DFEDEA0A60EE200AE94890ED130A00EEA8
:10274000880A80ED130A33E0E54890ED130A38EE6D
:10275000C00A10EE101A084609F0B4FD41EC1C0B3B
:1027600018EE100A09F0AEFD41EC1E0B9FEDDD0BDB
:1027700053EC102B09F0B0FA41EC1D0B53EC1C2B61
:1027800009F0AAFA41EC1A0BD54890ED130A10EEA5
:10279000101A084609F096FD41EC1B0B53EC1A2B5E
:1027A00009F00EF841EC190B08F0D8FFCC49C864C9
:1027B000C848D0ED130A70EEEF0AB0EE600A07F0D9
:1027C000BDFCC44880ED140AC348D0ED130A70EE76
:1027D000CF0AB0EE600A07F0B1FCBF4880ED140AE2
:1027E000BF48D0ED130A70EEE80AB0EE600A07F0B9
:1027F000A5FCBB4880ED140AB64890ED140AF1EE32
:10280000040AB4EEE00AF1EE10FA08DC90ED140AC6
:10281000F9EE040AB4EEE00AF1EE10FA09D2AD487E
:1028200090ED160AD0ED140A00EE880A80ED160A23
:1028300004E09FEDAE0AA74880ED160AA64890ED89
:10284000140AF1EE040AB4EEE00AF1EE10FA08DC24
:1028500090ED140AF9EE040AB4EEE00AF1EE10FA73
:1028600009D29D4890ED160AD0ED140A00EE880AB0
:1028700080ED160A04E09FED9D0A974880ED160A48
:10288000974890ED140AF1EE040AB4EEE00AF1EE76
:1028900010FA08DC90ED140AF9EE040AB4EEE00A2E
:1028A000F1EE10FA09D28E4890ED160AD0ED140A16
:1028B00000EE880A80ED160A04E09FED8C0A884835
:1028C00080ED160A834890ED160ADFED890AB4EE12
:1028D000E00AF1EE10FA02D29FED850A0FE07D4882
:1028E00090ED160ADFED830AB4EEE00AF1EE10FA7D
:1028F00002DD9FED800A02E0764890ED160A7548E9
:1029000080ED160A744890ED160ADFED790AB4EEF0
:10291000E00AF1EE10FA02D29FED750A0FE06E4860
:1029200090ED160ADFED730AB4EEE00AF1EE10FA4C
:1029300002DD9FED700A02E0674890ED160A6648D6
:1029400080ED160A664890ED160ADFED690AB4EECE
:10295000E00AF1EE10FA02D29FED650A0FE060483E
:1029600090ED160ADFED630AB4EEE00AF1EE10FA1C
:1029700002DD9FED600A02E0594890ED160A5848C2
:1029800080ED160A534890ED140AD0ED150A30EE8A
:10299000600AC0EE080AC0ED170A4F4890ED140A0D
:1029A000D0ED150A30EE600AC0EE080AC0ED170A35
:1029B0004B4890ED140AD0ED150A30EE600AC0EED7
:1029C000080AC0ED170A434890ED0D0AD0ED140A2D
:1029D00020EE200A80ED100A3F4890ED0D0AD0ED60
:1029E000140A20EE200A80ED100A3D4890ED0D0AF1
:1029F000D0ED140A20EE200A80ED100A354890ED43
:102A00000E0AD0ED160A20EE200A80ED110A324897
:102A100090ED0E0AD0ED160A20EE200A80ED110A84
:102A20002F4890ED0E0AD0ED160A20EE200A80ED18
:102A3000110A284890ED0F0AD0ED170A20EE200A5F
:102A400080ED120A244890ED0F0AD0ED170A20EE0F
:102A5000200A80ED120A224890ED0F0AD0ED170AE5
:102A600020EE200A80ED120A1A4890ED100AD0EDEF
:102A7000110A30EE200AD0ED120A30EE200A80ED65
:102A8000190A154890ED100AD0ED110A30EE200A0F
:102A9000D0ED120A30EE200A80ED190A104890EDB0
:102AA000100AD0ED110A30EE200AD0ED120A30EEF5
:102AB000200A80ED190A074890ED140A80ED150AE6
:102AC000054890ED140A80ED150A054814E0000051
:102AD0000000FA43B84A0020204B002000001643B3
:102AE000884B00201F85EB51B81E094000000000F4
:102AF0000000C8C20000C84290ED140A80ED150A1B
:102B0000BDEC108B10BD0000B0EE040A244880ED2F
:102B10000D0A9FED240A80ED0E0A9FED220A80ED3A
:102B20000F0A9FED210A80ED000AB7EE000A80ED42
:102B3000010A9FED1E0A80ED020AB0EE040A1C484D
:102B400080ED0D0A9FED170A80ED0E0A9FED150A24
:102B500080ED0F0A9FED140A80ED000AB7EE000A1F
:102B600080ED010A9FED110A80ED020AB1EE040A20
:102B7000104880ED0D0A9FED0B0A80ED0E0A9FEDC7
:102B8000090A80ED0F0AB1EE040A80ED000A9FEDFC
:102B9000060A80ED010A9FED030A80ED020A7047E4
:102BA000B84A0020000000009A99993F0AD7A33D37
:102BB000204B0020884B002010B50E48007898B9B3
:102BC0000D490E4800F0FEF8012802D001200C4902
:102BD000086000BF0849094800F0F4F80128F9D15D
:102BE0000849064800F012F800200249087006491A
:102BF000086010BD0C05002000002020A0600240ED
:102C0000FC04002000003120F80400200246094B9B
:102C10009A4201D2084801E00648103801F00053FA
:102C20001BB1064B0B40C36002E0044B0B408360BA
:102C30007047000010640240006002407D0F7D0F6D
:102C400021B1026842F00102026003E0026822F052
:102C50000102026070470000016821F0010101607B
:102C60000021016041608160C160016121214161F9
:102C70004A49884204D13D21484A103A91608CE08B
:102C800046491831884205D14FF47461434A103ADD
:102C9000916082E041493031884205D14FF474118E
:102CA0003E4A103A916078E03C494831884205D16B
:102CB0004FF07461394A103A91606EE037496031E3
:102CC000884204D13649354A103AD16065E033492B
:102CD0007831884204D13349304A103AD1605CE0FF
:102CE0002E499031884204D12F492C4A103AD160A4
:102CF00053E02A49A831884205D14FF03D51274A77
:102D0000103AD16049E02949884204D13D21274A3F
:102D1000083A116041E025491831884205D14FF445
:102D20007461224A083A116037E020493031884204
:102D300005D14FF474111D4A083A11602DE01B496A
:102D40004831884205D14FF07461184A083A116041
:102D500023E016496031884204D11149134A121FF9
:102D600011601AE011497831884204D10D490F4AA7
:102D7000121F116011E00D499031884204D10A49B7
:102D80000A4A121F116008E00849A831884204D19C
:102D90004FF03D51054A121F11607047106002400C
:102DA0003D000020400F002000003D201064024044
:102DB000014600200A6802F001020AB1012000E089
:102DC0000020704730B503460A46002000240B4D12
:102DD000AB4201D20A4901E00849103902F000551E
:102DE0000DB14C6800E00C68064D2C4004EA020569
:102DF0000DB1012000E0002030BD00001064024051
:102E0000006002407D0F7D0F10B500220268134B59
:102E10001A40CC680B6823434C6923438C692343D5
:102E2000CC6923430C6A23434C6A23438C6A2343B3
:102E30004C6B23438C6B23431A430260426922F09C
:102E40000702D1E90B3423431A4342610B69436003
:102E50004B6883608B68C36010BD00003F801CF02E
:102E6000416070477047F0B50A46002100230024F6
:102E700000BF3DE0012505FA01F3156805EA0304EA
:102E80009C4234D105684F000326BE40B54305601F
:102E900015794E00B5400668354305601579012D5A
:102EA00002D01579022D16D185684F000326BE4049
:102EB000B543856055794E00B540866835438560D9
:102EC000456801268E40B5434560456896798E4039
:102ED000B6B235434560C5684F000326BE40B543D2
:102EE000C560D5794E00B540C6683543C560491CFC
:102EF0001029BFD3F0BDF0B5002300244D07ED0E1F
:102F000002FA05F3CE1000F1200555F826504E07C1
:102F1000F70E0F26BE40B543CF1000F1200646F84D
:102F20002750CE1000F1200555F8265045EA03043D
:102F3000CE1000F1200545F82640F0BD10B5002167
:102F4000084600F074F808B1012010BDC82008F050
:102F50007AFA8021012000F06AF808B10120F4E734
:102F6000C82008F070FA0121022000F060F808B1D2
:102F70000120EAE7C82008F066FA0020E5E770B50E
:102F8000044600F057F93C2000F020F900F09EF9CB
:102F9000204600F01BF900F099F900F04BF93D20B4
:102FA00000F014F900F092F9002000F0D9F805467D
:102FB00000F066F9284670BD70B506460C46154609
:102FC00000F038F93C2000F001F900F07FF918B169
:102FD00000F056F9012070BD304600F0F7F800F01F
:102FE00075F900F027F93D2000F0F0F800F06EF9D7
:102FF0000DE0012C04D1002000F0B2F8287003E0AD
:10300000012000F0ADF82870601EC4B26D1C002CC9
:10301000EFD100F035F90020DDE710B501210220E5
:1030200000F005F808B1012010BD0020FCE770B5E4
:1030300005460C4600F0FEF83C2000F0C7F800F012
:1030400045F918B100F01CF9012070BD284600F0C8
:10305000BDF800F03BF9204600F0B8F800F036F972
:1030600018B100F00DF90120EFE700F009F9002098
:10307000EBE700BFFEE7000010B500200F49086035
:103080000F48006820F440600D4908600846006859
:1030900040F48060086000200A49C1F894020220D0
:1030A00008F0DFF9012005490860022008F0D9F98D
:1030B00000200449C1F8900210BD000090824042F7
:1030C00000040240008040421CB50121022005F0AE
:1030D000FBF93020009001208DF8040000208DF8CD
:1030E000060003208DF8050001208DF807006946D1
:1030F0000448FFF7B8FE0120034908600349C1F8FE
:1031000094021CBD00040240908240420080404274
:1031100010B500200F4908600F48006820F4406097
:103120000D4908600846006840F48060086001208E
:103130000A49C1F89402022008F093F901200549D8
:103140000860022008F08DF900200449C1F89002BF
:1031500010BD0000908240420004024000804042C6
:1031600070B5054600241648006820F440601449F4
:103170000860084600680860002616E00020114933
:103180000860022008F06DF901200F49C1F8900293
:103190006006040E0B487C38006808B1601CC4B29D
:1031A000012008F05EF9701CC6B2082EE6DB15B9E6
:1031B000FFF7AEFF01E0FFF75FFF204670BD0000A4
:1031C00000040240908240420080404270B50446B4
:1031D0001548006820F440601349086008460068FC
:1031E00040F480600860002010490860002517E066
:1031F000E0090E49091D08606006040E022008F06F
:1032000030F901200A49C1F89002022008F029F99A
:10321000002006490860022008F023F9681CC5B2A6
:10322000082DE5DB70BD00000004024090824042A2
:103230000080404210B50F48006820F440600D49FE
:1032400008600846006840F48060086001200A4970
:1032500008600A49C1F89002042008F002F9002031
:1032600005490860042008F0FCF800200349C1F873
:10327000900210BD0004024094824042008040420F
:1032800010B50F48006820F440600D4908600846FA
:10329000006840F48060086000200A4908600A491C
:1032A000C1F89402042008F0DCF801200549086008
:1032B0000549C1F89402042008F0D3F810BD0000BD
:1032C00000040240908240420080404210B5002439
:1032D0001348006820F440601149086008460068FF
:1032E000086001200F49086008F0BBF801200E4972
:1032F000C1F8900208F0B5F807E0601CC4B2FA2CDF
:1033000003DDFFF7BDFF012010BD064880380068CF
:103310000028F2D10349091F086000BFF4E700004C
:1033200000040240948240420080404270B52DED7E
:10333000108B82B0B0EE408AF0EE60EAB0EE41FA57
:10334000F0EE61FAF0EE429AB0EE629AF0EE438A45
:10335000B0EE63DAB0EE44AAF0EE64AA04460D467D
:1033600016469FEDF70A28EE000AF3EE040A20EE57
:10337000200AB0EE40EA6DEE0D0A4AEE0A0A4AEE65
:10338000AA0AB0EE600A08F07FF8EE4880ED000A65
:1033900090ED000AB5EEC00AF1EE10FA2ED0D0ED95
:1033A000000A8DEE200AE848D0ED000A70EE600AAF
:1033B00090ED000A0EEE200A80ED000AE148D0ED03
:1033C000000A8AEE200AE048D0ED010A70EE600A99
:1033D00090ED010A0EEE200A80ED010AD948D0EDE9
:1033E000000A8AEEA00AD848D0ED020A70EE600A00
:1033F00090ED020A0EEE200A80ED020AD34AD2496D
:10340000D34808F0ADF8D148D0ED000A60EEA00A2C
:1034100090ED011AD0ED011A41EE210AB0EE600ADA
:1034200008F032F8CB4880ED000AC84890ED000A59
:10343000B5EEC00AF1EE10FA36D090ED010AB5EE05
:10344000C00AF1EE10FA2FD090ED020AB5EEC00AD4
:10345000F1EE10FA28D0BF4890ED000AB5EEC00A90
:10346000F1EE10FA20D0B94890ED000AB948D0ED3D
:10347000000A80EE201AB0EE41BAB44890ED010A7D
:10348000B448D0ED000A80EE201AF0EE41BAF0EE1A
:103490004B0AB0EE6B0A07F019FEDFEDAF0A20EE23
:1034A000200AAE4880ED000AAD4890ED010AD0ED4B
:1034B000030A20EE200AD0ED000A90ED021A00EE79
:1034C000C10AF0EE000A20EE200AA14880ED000AB1
:1034D000A34890ED000AD0ED010A20EE200AD0EDBD
:1034E000020A90ED031A00EE810AF0EE000A20EEC7
:1034F000200A974880ED010A994890ED010A20EED4
:10350000000AD0ED020A90ED021A00EE810AF7EEF1
:10351000000AB0EE001A41EE400A8D48C0ED020AE2
:1035200069EEA90A49EE090A48EEA80AB0EE600A57
:1035300007F0AAFF8B4880ED000A9FED810A28EE74
:10354000000AF2EE040A60EE200A90ED000A8648B6
:1035500090ED001A30EE411A90ED000A00EE810A5B
:1035600080ED000AF5EEC09AF1EE10FA02DDB0EE41
:10357000690A01E0B1EE690ADFED7C0AB4EEE00A07
:10358000F1EE10FA7DD2B5EEC09AF1EE10FA02DD3E
:10359000B0EE490A01E0B1EE490ADFED740AB4EE7B
:1035A000E00AF1EE10FA78D2F5EEC08AF1EE10FAE8
:1035B00002DDB0EE680A01E0B1EE680ADFED6B0AE9
:1035C000B4EEE00AF1EE10FA67D2664890ED000A18
:1035D000C9EE800AF0EE609A90ED000AC9EE000A8A
:1035E000B0EE609A90ED000AC8EE800AF0EE608AB4
:1035F00090ED000ADFED5E0AB4EEE00AF1EE10FA9B
:1036000054DD90ED000ADFED590AB4EEE00AF1EE68
:1036100010FA4BD24E4890ED020A20EE090AD0ED86
:10362000010A08EEE00A534880ED030A484890ED8D
:10363000000A20EE280AD0ED020A09EEE00A4D4801
:1036400080ED040A9FED3E0A28EE000AF7EE000A1C
:1036500060EE20DA90ED030AD0ED060A70EE600A03
:1036600090ED060A0DEEA00A80ED060A90ED040A20
:10367000D0ED070A70EE600A90ED070A0DEEA00A81
:1036800000E00AE080ED070A90ED060A80ED000AEE
:1036900090ED070A80ED010A08E09FED370A3548F2
:1036A00080ED000A9FED340A80ED010A314890ED6B
:1036B000090AD0ED000A9FED311A60EE810AB0EEE2
:1036C000001A60EE810A00EE880A80ED090A90ED8A
:1036D0000A0AD0ED010A9FED291A60EE810AB0EEC8
:1036E000001A60EE810A00EE880A80ED0A0A90ED69
:1036F0000B0AD0ED020A9FED211A60EE810AB0EEAE
:10370000001A60EE810A00EE880A80ED0B0A90ED47
:10371000090ADFED1B0AB4EEE00AF1EE10FA02D25C
:103720009FED170A33E0134890ED090ADFED150A03
:10373000B4EEE00AF1EE10FA26DD9FED120A26E063
:10374000C3F5C8406C00002070070020640700200B
:103750001C07002068000020333365429C000020D5
:103760004C0000205C00002064000020008089459F
:1037700000806D4528070020000000009A99993EBE
:1037800034FA0EBD34FA0E3DFC4890ED090AFB48B0
:1037900080ED090A90ED0A0A5FED070AB4EEE00A2F
:1037A000F1EE10FA02D21FED0A0A0FE0F34890ED95
:1037B0000A0A5FED0C0AB4EEE00AF1EE10FA02DD3F
:1037C0001FED100A02E0ED4890ED0A0AEB4880ED8B
:1037D0000A0A90ED0B0A5FED160AB4EEE00AF1EE6C
:1037E00010FA02D21FED1A0A0FE0E44890ED0B0A1E
:1037F0005FED1C0AB4EEE00AF1EE10FA02DD1FEDF7
:103800001F0A02E0DD4890ED0B0ADC4880ED0B0A50
:10381000DB4890ED020AB5EEC00AF1EE10FA12DDB7
:10382000D848D0ED000AD84890ED001A70EEC10AD1
:10383000B0EE600A06F082FCDFEDD40A20EE200A2A
:10384000D34880ED000ACD4890ED000AD0ED090A7A
:1038500030EE200AF0EE0C0A20EE200AC84890ED67
:10386000001ACB48D0ED001AF0EE6E0A41EE610A64
:103870009FEDC81A00EE810AC04880ED0C0A90ED59
:10388000010AD0ED0A0A30EE200AF0EE0C0A20EE12
:10389000200ABB4890ED011ABD48D0ED001AF0EEA9
:1038A0004F0A41EE610A9FEDBB1A00EE810AB34850
:1038B00080ED0D0AB248D0ED020AB54890ED001A2D
:1038C000B0EE6F0A00EEC10ADFEDB20A20EE200A68
:1038D000AA4880ED0E0AB04890ED010AB1EE400A08
:1038E000A648D0ED0C0A20EE200AAB48D0ED020A23
:1038F000A24890ED0D1A00EEC10AA748D0ED030AC8
:103900009E4890ED0E1A00EEC10AA348D0ED000AC1
:1039100040EE080AC0ED000A90ED000A9748D0ED8D
:103920000C0A20EE200A9C48D0ED020A934890ED44
:103930000E1A00EE810A9848D0ED030A8F4890EDE8
:103940000D1A00EEC10A9448D0ED010A40EE080AB3
:10395000C0ED010A90ED000A8848D0ED0D0A20EE76
:10396000200A8D48D0ED010A844890ED0E1A00EE31
:10397000C10A8948D0ED030A804890ED0C1A00EE88
:10398000810A8548D0ED020A40EE080AC0ED020A1D
:1039900090ED000A7948D0ED0E0A20EE200A7E480C
:1039A000D0ED010A754890ED0D1A00EE810A7A48B3
:1039B000D0ED020A714890ED0C1A00EEC10A76486B
:1039C000D0ED030A40EE080AC0ED030AD0ED000A6C
:1039D00060EEA00A90ED011AD0ED011A41EE210A25
:1039E00090ED021AD0ED021A41EE210A90ED031A71
:1039F000D0ED031A41EE210AB0EE600A07F044FD53
:103A0000664880ED000A644890ED000A6348D0EDF6
:103A1000000A80EE201A604880ED001A90ED010A3D
:103A20005E48D0ED000A80EE201A5B4880ED011A56
:103A300090ED020A5948D0ED000A80EE201A56484F
:103A400080ED021A90ED030A5448D0ED000A80EE92
:103A5000201A514880ED031A90ED011A21EE011A47
:103A6000D0ED021A90ED022A01EE821AF7EE001A4A
:103A7000B0EE002A42EE411AF0EE610A90ED001A13
:103A8000D0ED011A21EE211AD0ED021A90ED032A91
:103A900001EE821AF0EE001A21EE211AB0EE410A70
:103AA00007F014FB5FEDD40A20EE200A84ED000A33
:103AB000394890ED010AD0ED030A20EE200AD0ED3E
:103AC000000A90ED021A00EEC10AF0EE000A20EEA4
:103AD000200A10EE101A084608F0F4FB41EC1C0B0B
:103AE000B0EE4C0AF0EE6C0A06F046FFB0EE40BABB
:103AF000F0EE60BA9FED2A0B53EC102B51EC1B0B30
:103B000008F0EAF8CDE900019DED000B51EC100B37
:103B100007F024FE2860204890ED001A21EE011ADB
:103B2000D0ED011A90ED012A01EE821AF7EE001A8B
:103B3000B0EE002A52EE011AF0EE610A90ED011A81
:103B4000B1EE411AD0ED021A21EE211AD0ED001A81
:103B500090ED032A01EEC21AF0EE001A21EE211AAE
:103B6000B0EE410A07F0B2FADFED0F0A20EE200AAC
:103B700086ED000A02B0BDEC108B70BD2807002056
:103B80001C0700209C000020480000203333333FF6
:103B90009800002034FA8E3C4C0000206000002089
:103BA0000000006066A64C40333365422DE9F04FBB
:103BB000DDF8248090F801A090F800B04AEA0B2AC2
:103BC0000FFA8AF490F803A090F802B04AEA0B2AA0
:103BD0000FFA8AF590F805A090F804B04AEA0B2A8B
:103BE0000FFA8AF990F809A090F808B04AEA0B2A6F
:103BF0000FFA8AF690F80BA090F80AB04AEA0B2A5E
:103C00000FFA8AF790F80DA090F80CB04AEA0B2A48
:103C10000FFA8AFCDFF8DCA49AF800A0BAF1010FD1
:103C200068D1DFF8D4A4BAF800A00AF1010ADFF8DD
:103C3000C8B4ABF800A0DFF8C4A4DAF800A0A2442E
:103C4000DFF8B8B4CBF800A0DA46DAF804A0AA444A
:103C5000CBF804A0DA46DAF808B0A9F5805ADA44BD
:103C6000DFF898B4CBF808A0DFF88CA4BAF800A06D
:103C7000BAF1320F3EDBDA46DAF800A04FF0320B31
:103C80009AFBFBFA00EE10AAB8EEC00ADFF870A4A7
:103C90008AED000ADFF864A4DAF804A09AFBFBFAC4
:103CA00000EE10AAB8EEC00ADFF854A48AED010AAB
:103CB000DFF848A4DAF808A09AFBFBFA00EE10AA95
:103CC000B8EEC00ADFF838A48AED020A4FF0000A05
:103CD000DFF824B4ABF800A0DFF818B48BF800A02C
:103CE000DFF818B4CBF80CA0CBF808A0CBF804A0F0
:103CF000CBF800A0DFF80CA49AF800A0BAF1000FEE
:103D000060D0DFF804A4BAF800A00AF1010ADFF8D5
:103D1000F8B3ABF800A0DFF8E4A3DAF810A0B244DF
:103D2000DFF8D8B3CBF810A0DA46DAF814A0BA441A
:103D3000CBF814A0DA46DAF818A0E244CBF818A0C1
:103D4000DFF8C4A3BAF800A0BAF1320F3ADBDA46C2
:103D50009AED040AB8EEC00ADFEDEC0A80EE201AF4
:103D6000DFF8ACA38AED001ADA469AED050AB8EE40
:103D7000C00ADFEDE60A80EE201ADFF894A38AED90
:103D8000011ADA469AED060AB8EEC00ADFEDDF0A3C
:103D900080EE201ADFF878A38AED021A4FF0000AAD
:103DA000DFF864B3ABF800A0DFF858B38BF800A0DD
:103DB000DFF848B3CBF80CA0CBF818A0CBF814A0D0
:103DC000CBF810A0DFF84CA3DFF84CB39BF800B0A1
:103DD0004AF82B400AF12C0ADFF83CB39BF800B0FC
:103DE0004AF82B500AF12C0ADFF82CB39BF800B0EC
:103DF0004AF82B900AF12C0ADFF81CB39BF800B0AC
:103E00004AF82B600AF12C0ADFF80CB39BF800B0DB
:103E10004AF82B700AF12C0ADFF8FCB29BF800B0CC
:103E20004AF82BC04FF0000ADFF8F0B28BF800A080
:103E3000AAE0DFF8E8A29AF800A00AEB4A0B0BEB25
:103E4000CA0ADFF8D0B25BF82AA0DFF8D0B29BF83C
:103E500000B00BEB4B0E0EEBCB0BDFF8B8E20EEB2A
:103E60008B0BDBF804B0DA44DFF8B0B29BF800B09B
:103E70000BEB4B0E0EEBCB0BDFF898E20EEB8B0B44
:103E8000DBF808B0DA44DFF894B29BF800B00BEB33
:103E90004B0E0EEBCB0BDFF87CE20EEB8B0BDBF863
:103EA0000CB0DA44DFF874B29BF800B00BEB4B0EA9
:103EB0000EEBCB0BDFF85CE20EEB8B0BDBF810B0FC
:103EC000DA44DFF858B29BF800B00BEB4B0E0EEB68
:103ED000CB0BDFF840E20EEB8B0BDBF814B0DA44CF
:103EE000DFF838B29BF800B00BEB4B0E0EEBCB0BB0
:103EF000DFF820E20EEB8B0BDBF818B0DA44DFF8CA
:103F00001CB29BF800B00BEB4B0E0EEBCB0BDFF8AB
:103F100004E20EEB8B0BDBF81CB0DA44DFF8FCB1EB
:103F20009BF800B00BEB4B0E0EEBCB0BDFF8E4E194
:103F30000EEB8B0BDBF820B0DA44DFF8E0B19BF836
:103F400000B00BEB4B0E0EEBCB0BDFF8C8E10EEB2A
:103F50008B0BDBF824B0DA44DFF8C0B19BF800B07B
:103F60000BEB4B0E0EEBCB0BDFF8A8E10EEB8B0B44
:103F7000CBF828A0DFF8A4A19AF800A00AF1010A62
:103F8000DFF898B18BF800A0DFF890A19AF800A0B4
:103F9000BAF1060FFFF64DAFDFF878A1DAF828A0E6
:103FA0004FF00A0B9AFBFBFA00EE10AAB8EEC00A1B
:103FB000DFF84CA1DAED000A30EE600ABDEEC00A6F
:103FC00010EE10AA0FFA8AFAA1F800A0DFF844A1B7
:103FD000DAF854A09AFBFBFA00EE10AAB8EEC00A79
:103FE000DFF81CA1DAED010A30EE600ABDEEC00A6E
:103FF00010EE10AA0FFA8AFAA2F800A0DFF814A1B6
:10400000DAF880A09AFBFBFA00EE10AAB8EEC00A1C
:10401000DFF8ECA0DAED020A30EE600ABDEEC00A6D
:1040200010EE10AA0FFA8AFAA3F800A0DFF8E4A0B5
:10403000DAF8ACA09AFBFBFA00EE10AAB8EEC00AC0
:10404000DFF8CCA0DAED000A30EE600ABDEEC00A5F
:1040500010EE10AA0FFA8AFAA8F800A0DFF8B4A0B0
:10406000DAF8D8A09AFBFBFA00EE10AAB8EEC00A64
:10407000DFF89CA0DAED010A30EE600ABDEEC00A5E
:1040800010EE10AA0FFA8AFBDDF828A0AAF800B0FB
:10409000DFF880A0DAF804A14FF00A0B9AFBFBFAD4
:1040A00000EE10AAB8EEC00ADFF864A0DAED020A4A
:1040B00030EE600ABDEEC00A10EE10AA0FFA8AFBBD
:1040C000DDF82CA0AAF800B0DFF84CA09AF800A008
:1040D0000AF1010ADFF840B08BF800A0DA469AF83E
:1040E00000A0BAF10A0F03DB4FF0000A8BF800A022
:1040F000BDE8F08F080000200A000020C80500205D
:10410000B0050020090000200C00002000004842FB
:10411000BC050020E40500200E0000200F00002058
:1041200010B5FEF7D1FF80216B2000F0D1F864209C
:1041300007F089F903216B2000F0CAF80A2007F084
:1041400082F900216C2000F0C3F80A2007F07BF907
:10415000032000F081F80A2007F075F9022000F032
:1041600073F80A2007F06FF94FF47A7000F099F8AD
:104170000A2007F068F9142000F076F80A2007F00A
:1041800062F90021382000F0A3F80A2007F05BF95B
:1041900000216A2000F09CF80A2007F054F9002161
:1041A000232000F095F80A2007F04DF9022137206E
:1041B00000F08EF80A2007F046F9002010BD70B517
:1041C000044623460E223B21682000F003F80546F2
:1041D000284670BD2DE9F04106460F4614461D469F
:1041E000FFF728F8002141EA4601C8B2FEF7EEFFCA
:1041F000FFF76CF820B1FFF743F80120BDE8F0812C
:104200003846FEF7E3FFFFF761F8FFF713F80121E7
:1042100001EB4601C8B2FEF7D9FFFFF757F80DE0F2
:10422000012C04D10020FEF79BFF287003E0012041
:10423000FEF796FF2870601EC4B26D1C002CEFD1F3
:10424000FFF71EF80020D9E710B50446E006010E7E
:104250001C2000F03DF810BD10B50446E006010E2C
:104260001B2000F035F810BD70B504460025BC2CAD
:1042700001DB012510E0622C01DB02250CE02A2C79
:1042800001DB032508E0142C01DB042504E00A2CE3
:1042900001DB052500E0062529461A2000F018F864
:1042A00070BD70B50446B4F57A7F01DD4FF47A74C1
:1042B000042C00DA04244FF47A7090FBF4F0401ED2
:1042C000C5B22946192000F003F80546284670BDFE
:1042D00070B505460C46FEF7ADFFD020FEF776FF21
:1042E000FEF7F4FF18B1FEF7CBFF012070BD2846A2
:1042F000FEF76CFFFEF7EAFF2046FEF767FFFEF7CA
:10430000E5FF18B1FEF7BCFF0120EFE7FEF7B8FFAD
:104310000020EBE700BFFEE730B505460C4622461D
:104320000021284600F001F830BD2DE9F041054696
:104330000B4694460027002402E03F021F43641C02
:10434000042CFAD3604605F00306294646B13446EC
:1043500003E001F8013B401E641C08B1042CF8D3B3
:104360000A4601E080C2001F0428FBD2114602E089
:1043700001F8013B401E0028FAD1BDE8F0817047EA
:1043800070B5002100230F22C4781CB3174C246899
:1043900004F4E064C4F5E064C4F30721C1F104044B
:1043A000E3B20A4144789C40E1B28478144021434E
:1043B0000C07210E0E4C05786155047804F01F059A
:1043C0000124AC4005786D11AD0005F1E025C5F87C
:1043D000004109E0047804F01F050124AC40054DBC
:1043E0000678761145F8264070BD00000CED00E01F
:1043F00000E400E080E100E002490143024A11606C
:10440000704700000000FA050CED00E00E480F4870
:104410000F481048104811481148124812481348D4
:1044200013481448144815481548164816481748A4
:10443000174818481848194819481A481A481B4874
:104440001B4800BF7047000078C50008D8C40008AA
:10445000DCC40008E0C40008E4C40008E8C40008A4
:10446000ECC40008F0C40008F4C40008F8C4000854
:10447000FCC4000800C5000804C5000808C5000801
:104480000CC5000810C5000814C5000818C50008B0
:1044900034C5000838C500083CC5000840C5000800
:1044A00044C5000848C500084CC5000850C50008B0
:1044B00054C500087047000070B5044600F08CF841
:1044C0000020374908703749087037490870374964
:1044D000086037490860374908703749087037491C
:1044E000087037490860374908603749086037481D
:1044F000006858B13648056845B13448066803E09D
:10450000761E002028602D1D002EF9D10020314993
:10451000087002F02FFD02F00FFE204601F062FE4F
:10452000208800B170BD204602F02CFA208800B12E
:10453000F8E7204602F04EFA208800B1F2E7204664
:1045400002F066FB208800B1ECE7204602F042FD55
:10455000208800B1E6E7204602F0C4FE208800B1C2
:10456000E0E7204602F0D2FF208800B1DAE72046DB
:1045700002F060F9208800B1D4E7204601F09EFFE8
:10458000208800B1CEE7204603F01EFF208800B14E
:10459000C8E701F059FDFFF739FF00BFC2E700008F
:1045A0003005002031050020780500209805002006
:1045B0009C0500205E0500205F05002060050020AE
:1045C0006C050020700500207405002008C5000857
:1045D00004C500088E0500200648006806490968E1
:1045E00000EB8100054908600846006820F00700DC
:1045F0000860704704C5000808C50008A005002031
:1046000008480078012800D0704707480078FA2849
:1046100000DBF9E704480078401C0349087000BF3C
:10462000F2E70000310500203005002010B500241D
:104630002D480078012800D010BD00BFFBF74EFECA
:10464000044600BF2948007828B900BF2046FBF780
:1046500049FE00BFF0E725480078401E2349087056
:1046600008460078002805DD00BF2046FBF73AFE2B
:1046700000BFE1E71E480078002805DD00BF2046A6
:10468000FBF730FE00BFD7E702F060FC1949087065
:104690000846007800EB4000174951F82000174900
:1046A00008600846006816490968884205D100BFBD
:1046B0002046FBF717FE00BFBEE710480068D0F8A1
:1046C0009000401C0D490968C1F890000D48006831
:1046D000401C0C490860FCF7FBFF00BF2046FBF7BD
:1046E00001FE00BF00BFA7E7310500203005002014
:1046F000780500205F050020985E00209C050020C2
:1047000098050020840500202DE9FF4F83B0044662
:1047100015461F46DDE910960020009042480078BB
:10472000002805DD45F2B960308007B0BDE8F08FA4
:104730001DB945F2BB603080F7E7022F03DA45F27E
:10474000BC603080F1E7B9F1040F03D245F2C160DB
:104750003080EAE74FF0030ABAF1000F0DD005EA06
:104760000A0018B145F2BB603080DEE709EA0A00B2
:1047700018B145F2C1603080D7E7AB46A846781E35
:1047800080B201900020029007E0C844CBF800807E
:10479000C3460298401C80B20290DDE901108842B5
:1047A000F3DB0020CBF8000000BF00BF00BFFBF729
:1047B00095FD009000BF00BF1C480078401C1B49BD
:1047C000087000BF00BF0098FBF78CFD00BF00BF62
:1047D00000BF174820600498A0606560E560A7826C
:1047E0006782A4F81090204602F0B8F811480088BB
:1047F000401C1049088000BF00BF00BFFBF76EFDE2
:10480000009000BF00BF09480078401E07490870AB
:1048100000BF00BF0098FBF765FD00BF00BF00BFF1
:104820000020308000BF80E73005002078050020A0
:104830004D454D20540500202DE9F04104460D461C
:1048400000272CB945F2BF6028800020BDE8F08128
:1048500000BF00BFFBF742FD074600BF00BFA08AB4
:1048600058B900BF00BF3846FBF73CFD00BF00BF92
:1048700045F2C26028800020E8E7E6683068E06022
:10488000A08A401EA08200BF00BF3846FBF72AFD69
:1048900000BF00BF002028803046D7E72DE9F04157
:1048A00004460E461546002724B945F2BF6028800D
:1048B000BDE8F0811EB945F2BE602880F8E700BF70
:1048C00000BFFBF70BFD074600BF00BFA08A618A4F
:1048D00088420ADB00BF00BF3846FBF703FD00BF7C
:1048E00000BF45F2BA602880E2E7E0683060E66029
:1048F000A08A401CA08200BF00BF3846FBF7F2FC34
:1049000000BF00BF0020288000BFD1E72DE9F041A3
:1049100004460E461546002729480078002804DD85
:1049200042F6E1602880BDE8F0811CB945F6C3502D
:104930002880F8E700BF00BF00BFFBF7CFFC0746A9
:1049400000BF00BF1F480078401C1E49087000BF10
:1049500000BF3846FBF7C6FC00BF00BF00BF1A48C7
:10496000206066600020206284F82500A06240205C
:1049700084F8240004F1080002F001FA204602F055
:104980002FF912480088401C1049088000BF00BF62
:1049900000BFFBF7A3FC074600BF00BF0948007833
:1049A000401E0849087000BF00BF3846FBF79AFC5C
:1049B00000BF00BF00BF0020288000BFB3E7000099
:1049C00030050020780500204D5554585C05002026
:1049D0002DE9F04788B00546894690461C46109E52
:1049E0004FF0000AAB480078002805DD46F2AE1013
:1049F000308008B0BDE8F0871DB945F6C35030805F
:104A0000F7E7B8F1000F03D0B8F5004F02D100E08E
:104A100000BF03E045F625603080EAE700BF9E490D
:104A20002868884203D045F6C4503080E1E70CB1D5
:104A30000020206000BF00BFFBF750FC824600BF93
:104A400000BF95F82500C0B99448006828629348D3
:104A5000006890F8370085F82400012085F82500CB
:104A60000CB1A86A206000BF00BF5046FBF73AFCBB
:104A700000BF00BF00203080BBE78849286A096872
:104A8000884212D195F82500401C85F825000CB10C
:104A9000A86A206000BF00BF5046FBF723FC00BFA0
:104AA00000BF45F282703080A3E708F4004050B1A7
:104AB00000BF00BF5046FBF715FC00BF00BF46F229
:104AC000B010308095E77648007800280ADD00BFF6
:104AD00000BF5046FBF706FC00BF00BF46F6635020
:104AE000308086E700BF6E480078401C6C49087033
:104AF00000BF00BF5046FBF7F5FB00BF00BF00BF83
:104B00002F6A97F837006549096891F8371088428D
:104B100060DD97F8360008282AD2DFE800F0041597
:104B20001E1F17162021384602F06CFB5B480068F8
:104B300090F8370087F8370097F8370002F026FA28
:104B4000384602F021FB44E000BF00BF5348006834
:104B500090F8370087F837003BE000BF00BF00BF88
:104B60004E48006890F83710384602F0E5F830E01B
:104B700000BF00BF00BFFBF7B1FB824600BF00BF14
:104B800047480078401E4649087008460078A0B99A
:104B900044480088002809DD00BF00BF5046FBF7ED
:104BA000A1FB00BF00BF02F05BFB0DE000BF00BF38
:104BB0005046FBF797FB00BF06E000BF00BF504622
:104BC000FBF790FB00BF00BF00BF46F62D603080B2
:104BD0000FE700BF4B4604222946684602F024F83E
:104BE00000BF00BF00BFFBF779FB824600BF00BFDC
:104BF0002B480078401E2A49087000BF00BF50466D
:104C0000FBF770FB00BF00BF00BF00F073F900BFEF
:104C100000BFFBF763FB824600BF00BF1F48006870
:104C200090F8350030B101280CD002281AD00328A2
:104C300021D110E01CB119480068006C20600020F0
:104C400030801CE01CB115480068006C206046F202
:104C5000A910308013E00CB10020206047F2D92069
:104C600030800CE01CB10D480068006C206045F6F7
:104C7000C250308003E046F62E60308000BF00BF97
:104C800000BF00BF5046FBF72DFB00BF00BF00BFB9
:104C9000AFE60000300500204D555458980500201F
:104CA000780500203C0500202DE9F84F0446884691
:104CB00015464FF0000A89480078002804DD46F2C6
:104CC0000E202880BDE8F88F1CB945F6C350288017
:104CD000F8E7B8F1000F03D0B8F5004F02D100E0BB
:104CE00000BF03E045F625602880EBE700BF7C4964
:104CF0002068884203D045F6C4502880E2E700BF10
:104D000000BFFBF7EBFA824600BF00BF7549206A7F
:104D1000096888420AD000BF00BF5046FBF7E2FA9C
:104D200000BF00BF45F281702880CBE700BF6E480E
:104D30000078401C6C49087000BF00BF5046FBF76C
:104D4000D1FA00BF00BF00BFFDF788F80746A76291
:104D500094F82500401E84F8250094F825000028CA
:104D600030DD00BF00BF00BFFBF7B8FA824600BFCE
:104D700000BF5D480078401E5B4908700846007817
:104D8000A0B95A480088002809DD00BF00BF50467E
:104D9000FBF7A8FA00BF00BF02F062FA0DE000BF07
:104DA00000BF5046FBF79EFA00BF06E000BF00BF01
:104DB0005046FBF797FA00BF00BF00BF45F2837073
:104DC00028807FE704F10809B9F8080098BB0020A3
:104DD000206284F8250000BF00BF00BFFBF77EFA09
:104DE000824600BF00BF40480078401E3E49087020
:104DF00008460078A0B93D480088002809DD00BFBA
:104E000000BF5046FBF76EFA00BF00BF02F028FA61
:104E10000DE000BF00BF5046FBF764FA00BF06E09C
:104E200000BF00BF5046FBF75DFA00BF00BF00BFE8
:104E30000020288046E7FFE72A48006890F83700FE
:104E400094F82410884219D02648006802F0DAF954
:104E500094F824002349096881F83700214909683A
:104E600091F8370002F092F81E48006802F0ACF9A1
:104E70001C48006890F837001D490870D9F80000F8
:104E80008668266296F8370084F82400012084F8AA
:104E9000250000231A4631462046009701F0E0FF26
:104EA00000BF00BF00BFFBF719FA824600BF00BF7A
:104EB0000D480078401E0C49087000BF00BF5046E6
:104EC000FBF710FA00BF00BF00BF08F4004008B9AC
:104ED00000F010F80020288000BFF3E63005002025
:104EE0004D55545898050020780500203C050020B9
:104EF0005E05002010B500241F480078002800DD62
:104F000010BD1E480078002800DDF9E700BFFBF760
:104F1000E5F9044600BF02F019F81949087008467F
:104F2000007800EB4000174951F82000164908604E
:104F30000846006815490968884205D100BF204627
:104F4000FBF7D0F900BFDBE70F480068D0F890000E
:104F5000401C0D490968C1F890000D480068401CCC
:104F60000B490860FCF7AFFB00BF2046FBF7BAF91E
:104F700000BF00BFC4E70000300500207805002016
:104F80005F050020985E00209C0500209805002009
:104F9000840500202DE9F04104460E4617461D46C3
:104FA0004FF0000826480078002804DD42F6E16052
:104FB0002880BDE8F0811CB945F6C3502880F8E789
:104FC00000BF00BF00BFFBF789F9804600BF00BFEC
:104FD0001C480078401C1B49087000BF00BF4046B9
:104FE000FBF780F900BF00BF00BF174820602762B1
:104FF00000206062666004F1080001F0C0FE2046F7
:1050000002F058F911480088401C1049088000BF80
:1050100000BF00BFFBF762F9804600BF00BF094830
:105020000078401E0749087000BF00BF4046FBF7EC
:1050300059F900BF00BF00BF0020288000BFB8E7BB
:10504000300500207805002053454D4180050020A3
:105050002DE9F04788B00646894690461C46109DCB
:105060004FF0000A6E480078002806DD46F2AE10C8
:105070002880002008B0BDE8F08726B945F6C35067
:1050800028800020F6E7B8F1000F03D0B8F5004FF4
:1050900002D100E000BF04E045F625602880002032
:1050A000E8E700BF5F493068884204D045F6C45045
:1050B00028800020DEE70CB10020206000BF00BF88
:1050C000FBF70CF9824600BF00BF306A88B1306A36
:1050D000401E30620CB1706A2060376A00BF00BFAA
:1050E0005046FBF7FFF800BF00BF0020288038467D
:1050F000C0E708F4004060B1376A00BF00BF504607
:10510000FBF7F0F800BF00BF46F2B0102880384629
:10511000B0E74548007800280BDD00BF00BF5046CF
:10512000FBF7E0F800BF00BF46F663502880002080
:10513000A0E700BF3C480078401C3B49087000BF16
:1051400000BF5046FBF7CEF800BF00BF00BF4B4684
:1051500006223146684601F067FD00BF00BF00BF70
:10516000FBF7BCF8824600BF00BF2F480078401E06
:105170002D49087000BF00BF5046FBF7B3F800BFD1
:1051800000BF00BFFFF7B6FE00BF00BFFBF7A6F8E9
:10519000824600BF00BF2548006890F8350030B156
:1051A00001280CD002281AD0032821D110E01CB10C
:1051B0001E480068006C20600020288024E01CB19C
:1051C0001A480068006C206046F2A91028801BE095
:1051D0000CB10020206047F2D920288014E01CB1D7
:1051E00012480068006C206045F6C25028800BE031
:1051F00046F62E60288000BF00BF5046FBF772F8CD
:1052000000BF00BF002035E700BF376A00BF00BF06
:105210005046FBF767F800BF00BF38462AE700009A
:105220003005002053454D417805002098050020A9
:1052300010B5044612480078E8B901F087FE11491C
:10524000087008460078104908700E48007800EB96
:1052500040000E4951F820000D49086008460068DA
:105260000C490860012006490870FCF71BFA43F658
:105270009920208002E045F68A60208010BD000061
:10528000310500205F0500205E050020985E0020AB
:105290009C050020980500202DE9FF4F87B00446AB
:1052A0009046DDE91BA5DDE91496179F00200390C9
:1052B00083480078002805DD47F24A1028800BB0AB
:1052C000BDE8F08F1CB947F2AD102880F7E7B8F1C0
:1052D000000F03D147F24F102880F0E71EB946F6C1
:1052E0002F602880EBE777480068874203D246F6B4
:1052F00030602880E3E71698B84203D346F6316061
:105300002880DCE7B9F1400F03D346F273202880F0
:10531000D5E7B9F1000F06D16B48844203D046F2BD
:1053200073202880CBE7B9F13F0F06D1674884424C
:1053300003D046F273202880C1E7204602F0F6F839
:10534000002028800AF0010090B10AF0020078B134
:1053500005960020069008E0002105980160059858
:10536000001D05900698401C06900698B842F3D39D
:10537000169806EB80000490CDE9007A324640464C
:10538000049B0A9900F046FC0590C4F828800A980E
:10539000E0620898206284F83790059820600498AD
:1053A000A060199860651A9860606662A763A4F8A7
:1053B0003CA04FF0000B08E0002104F17C0040F815
:1053C0002B100BF1010000F0FF0BBBF1000FF3D02D
:1053D00004F16400189901F07DFB204600F080F88C
:1053E00000BF00BF00BFFAF779FF039000BF00BF06
:1053F00037480078401C3649087000BF00BF03984A
:10540000FAF770FF00BF00BF00BF94F8370001F04B
:10541000BDFD204601F0D8FE204602F03DF82D48A3
:105420000088401C2B4908802B48007801282DD08B
:1054300000BF00BF00BFFAF751FF039000BF00BFDD
:1054400023480078401E2249087008460078A0B919
:1054500022480088002809DD00BF00BF0398FAF742
:1054600041FF00BF00BF01F0FBFE0DE000BF00BF29
:105470000398FAF737FF00BF06E000BF00BF0398AC
:10548000FAF730FF00BF00BF00BF18E700BF00BF42
:1054900000BFFAF723FF039000BF00BF0C4800785D
:1054A000401E0B49087000BF00BF0398FAF71AFFAF
:1054B00000BF00BF00BFFFF71DFD00BFFFE60000FB
:1054C0003005002034C50008C85D0020045D0020C0
:1054D000780500208C050020310500203C050020C7
:1054E0007047000070B504460D46002667480078F6
:1054F000002803DD47F24E10288070BD64488442C6
:1055000003D147F24C102880F7E76248844203D168
:1055100047F24D102880F0E77CB900BF00BFFAF7D2
:10552000DDFE064600BF00BF5B48046800BF00BF49
:105530003046FAF7D7FE00BF00BF00BF00BF00BF74
:10554000FAF7CCFE064600BF00BF54480078401C66
:105550005249087000BF00BF3046FAF7C3FE00BFD3
:1055600000BF00BF94F8360008282DD2DFE800F015
:1055700004090E10080A0F11204601F043FE54E002
:1055800053E000BF204602F0F1FD4EE000BF00BF37
:1055900000BF204602F0EAFD94F83400082810D23B
:1055A000DFE800F004070508090A0B0600BF00BF8A
:1055B00008E000BF00BF00BF00BF204601F017FC9D
:1055C00000E000BF00BF30E000BF00BF00BFFAF73F
:1055D00085FE064600BF00BF30480078401E2F49B8
:1055E000087008460078A0B92D480088002809DD19
:1055F00000BF00BF3046FAF775FE00BF00BF01F0E4
:105600002FFE0DE000BF00BF3046FAF76BFE00BF73
:1056100006E000BF00BF3046FAF764FE00BF00BFDF
:1056200000BF46F62D60288067E700BF04F16400E4
:1056300001F0FAF9204600F037F8204601F044FF67
:1056400018480088401E17490880204601F06EFF68
:10565000FF2084F8360000BF00BF00BFFAF73EFE0F
:10566000064600BF00BF0D480078401E0B49087079
:1056700000BF00BF3046FAF735FE00BF00BF00BFD5
:1056800000202880FFF736FC00BF36E730050020F9
:10569000045D0020C85D00209805002078050020EA
:1056A0003C0500208C050020704700002DE9F05FCC
:1056B00080460F4616461C460A9D4FF0000B7C485C
:1056C0000078002805DD46F2AE1028800020BDE8F5
:1056D000F09F26B946F2D52028800020F7E71FB1B9
:1056E000B7F5004F02D100E000BF04E045F62560A9
:1056F00028800020EBE700BF0CB10020206000BF35
:1057000000BFFAF7EBFD834600BF00BF69480068A1
:1057100000F164092B4622463146484601F0A6F9BD
:1057200082462888F0B9A4B1FCF798FB2168401A9A
:105730006049096848675F480068806F5D4909688B
:10574000496F884205D25B480068406F5949096833
:10575000886700BF00BF5846FAF7C4FD00BF00BF0E
:105760005046B4E707F4004058B146F2B010288024
:1057700000BF00BF5846FAF7B5FD00BF00BF0020CC
:10578000A5E74D48007800280BDD00BF00BF584654
:10579000FAF7A8FD00BF00BF46F66350288000203E
:1057A00095E700BF44480078401C4349087000BF9B
:1057B00000BF5846FAF796FD00BF00BF00BF434642
:1057C00002220021084601F02FFA00BF00BF00BFEF
:1057D000FAF784FD834600BF00BF37480078401EBB
:1057E0003549087000BF00BF5846FAF77BFD00BF7F
:1057F00000BF00BFFFF77EFB00BF00BFFAF76EFDE2
:10580000834600BF00BF2B48006890F8350020B1E8
:1058100001282AD0032832D132E026480068D0F887
:105820005CA024480068B0F860003080D4B1214802
:105830000068006C2060FCF711FB1E490968096CC8
:10584000401A1C49096848671A480068806F19495E
:105850000968496F884205D216480068406F1549AB
:10586000096888670020288017E04FF0000A0020B0
:10587000308004B1206046F2A91028800DE000BFFE
:105880004FF0000A002030801CB10A480068006C0C
:10589000206047F2D920288000BF00BF00BF00BFB2
:1058A0005846FAF71FFD00BF00BF50460FE7000043
:1058B0003005002098050020780500202DE9FF47DD
:1058C0000746884691461D460C9E4DB1102D08D0C6
:1058D000B5F5004F06D0A5F50040103820B902E01C
:1058E00000BF00BF00BF04E045F625603080BDE882
:1058F000FF8700BFFCF7B2FA04460D480078002885
:105900000BDD00204B4642463946CDE90246CDE943
:105910000005084800F00AFEE9E72B464A464146E2
:105920003846CDE9004601F065FE00BFDFE7000024
:1059300030050020544D5347704700002DE9F047D3
:1059400080460E4614461D464FF000097D480078FB
:10595000002805DD46F2AE1028800020BDE8F08763
:105960001EB1B6F5004F02D100E000BF04E045F6DD
:10597000256028800020F1E700BF0CB100202060E6
:1059800000BF00BFFAF7AAFC814600BF00BF6E4807
:105990000068406CA8B36C480068406C401E6A49BF
:1059A0000968486468480068476C1CB1664800682C
:1059B000006C2060FCF752FA63490968096C401AD0
:1059C00061490968C1F8A4005F480068D0F8A800E0
:1059D0005D490968D1F8A410884207D25A48006886
:1059E000D0F8A40058490968C1F8A80000BF00BF5A
:1059F0004846FAF777FC00BF00BF002028803846F1
:105A0000ACE7FFE706F4004058B100BF00BF4846CE
:105A1000FAF768FC00BF00BF46F2B01028800020F3
:105A20009CE74A48007800280BDD00BF00BF4846CD
:105A3000FAF758FC00BF00BF46F6635028800020EC
:105A40008CE700BF41480078401C4049087000BF07
:105A500000BF4846FAF746FC00BF00BF00BF434600
:105A600007220021084601F0DFF800BF00BF00BF99
:105A7000FAF734FC814600BF00BF34480078401E6E
:105A80003249087000BF00BF4846FAF72BFC00BF40
:105A900000BF00BFFFF72EFA00BF00BFFAF71EFCE1
:105AA000814600BF00BF2848006890F8350020B14B
:105AB000012826D0032834D12CE0FCB1224800680C
:105AC000006C2060FCF7CAF91F490968096C401A8C
:105AD0001D490968C1F8A4001B480068D0F8A80057
